:100000000C9429020C9470020C9470020C949F1CA6
:100010000C9470020C9470020C9470020C94700298
:100020000C9470020C9470020C94F3240C94C72569
:100030000C945D1F0C9470020C9470020C9470026E
:100040000C9470020C9470020C9470020C94700268
:100050000C9470020C94D01F0C9470020C947002DB
:100060000C9470020C9470020C9470020C94700248
:100070000C9470020C9470020C9470020C94700238
:100080000C9470020C9470020C9470020C94700228
:100090000C9470020C9470020C9470020C94700218
:1000A0000C9470020C9470020C9470020100010018
:1000B0000100010001000100010001000100010038
:1000C0000100010001000100010001000100010028
:1000D000000000000100010001000100010001001A
:1000E0000100010001000100010001000100010008
:1000F00001000100010001000100010001000100F8
:1001000000000000010001000100010001000100E9
:1001100001000100010001000100010001000100D7
:1001200001000100010001000100010001000100C7
:1001300000000000010001000100010001000100B9
:1001400001000100010001000100010001000100A7
:100150000100010001000100010001000100010097
:100160000000000001000100010001000100010089
:100170000100010001000100010001000100010077
:100180000100010001000100010001000100010067
:100190000000000001000100010001000100010059
:1001A0000100010001000100010001000100010047
:1001B0000100010001000100010001000100010037
:1001C0000000000001000100010001000100010029
:1001D0000100010001000100010001000100010017
:1001E0000100010001000100010001000100010007
:1001F00000000000010001000100010001000100F9
:1002000001000100010001000100010001000100E6
:1002100001000100010001000100010001000100D6
:1002200000000000010001000100010000000000CA
:10023000000000002A2B2800000000000000000041
:100240000000000000000029000000002C1E3420E7
:10025000212224342627252E362D3738271E1F200D
:100260002122232425263333362E37381F04050652
:100270000708090A0B0C0D0E0F1011121314151696
:100280001718191A1B1C1D2F3130232D3504050694
:100290000708090A0B0C0D0E0F1011121314151676
:1002A0001718191A1B1C1D2F3130354C0000000087
:1002B000000000000000000000000000000000003E
:1002C000000000000000000000000000000000002E
:1002D0007E0F00D4FFFFFFC70000007810036B0003
:1002E0006F00720070006F003400340000001403CF
:1002F000740061006D00610067006F003300320020
:10030000340000000403090409025B00030100A09B
:10031000FA09040000010301010009211101000193
:100320002240000705810308000A090401000203B6
:1003300000000009211101000122220007058203AB
:100340002000010705030320000109040200010346
:10035000000000092111010001227B000705840330
:1003600020000A120100020000000826192546019B
:1003700000010200010660FF0961A1010962150088
:1003800026FF009520750881020963150026FF00ED
:10039000952075089102C005010902A10185020995
:1003A00001A1000509190129081500250195087505
:1003B0000181020501093009311581257F950275FA
:1003C00008810609381581257F9501750881060584
:1003D0000C0A38021581257F950175088106C0C079
:1003E00005010980A101850319012AB7001501261D
:1003F000B700950175108100C0050C0901A10185A8
:100400000419012AA002150126A002950175108188
:1004100000C005010906A101050719E029E715003B
:10042000250195087501810295017508810105076F
:10043000190029FF150026FF0095067508810005A3
:10044000081901290595057501910295017503911A
:1004500001C011241FBECFEFDAE0DEBFCDBF04B66E
:1004600003FE27C08091940290919502A09196027C
:10047000B09197028730904BA740B04BD1F41092C7
:10048000940210929502109296021092970214BE56
:1004900084B7877F84BF0FB6F894A89580916000D9
:1004A000886180936000109260000FBEE0E0F8E386
:1004B000099511E0A0E0B1E0E2EAF0E502C00590A4
:1004C0000D92A63BB107D9F722E0A6EBB1E001C03F
:1004D0001D92A439B207E1F70E9464140C94182805
:1004E0000C94000081E0089581E008950C9474025A
:1004F00008950C9478021F93CF93DF9300D000D01F
:100500000F92CDB7DEB749835A836B833091B80120
:1005100089819A8131111DC06623B9F02223A9F087
:100520000E94CE08182F682F89819A810E9477082F
:1005300069817A81812F0F900F900F900F900F900B
:10054000DF91CF911F910C9409190E94A508182FD3
:10055000EFCF0E94CE0869817A81EDCFFC01262F72
:10056000408151816281738184810C947B0281E09E
:100570000895CF93DF93EC0160E00E94AE02BE01CC
:10058000DF91CF910C947902E1E0F0E0DF0102C04D
:10059000AA0FBB1F6A95E2F7BD01DF0102C0AA0FD7
:1005A000BB1F4A95E2F76A2B01C0EE0F2A95EAF7C6
:1005B000962F9823961302C08E2B0895E0958E23D4
:1005C0000895242F462F682F8091CB010E94C402EA
:1005D0000C9434080E945A100E9432040C94751036
:1005E0000C94781008950E94CC070E94F2022FEF1D
:1005F00084E39CE0215080409040E1F700C000007F
:100600000C94F41F0F931F93CF93DF938C0161E041
:100610000E94AE02EC01B8010E9451178823D9F163
:10062000B801CE010E9476028823A9F1B801CE015B
:100630000E94581A882379F1B801CE010E94AA1AA3
:10064000882349F1B801CE010E94CD1B882319F1FE
:10065000F8018281882361F0CA35FDE5DF0721F1C9
:1006600070F4C115ECE5DE07A1F0CE3DDC45C9F024
:10067000C801DF91CF911F910F910C947202CB357D
:100680008DE5D807A1F0CC35DD4591F70E941E0C11
:10069000EFCF0E94F30280E0DF91CF911F910F9185
:1006A00008950E94870DF7CF0E94270CE1CF0E948A
:1006B0002A0CDECFDF92EF92FF920F931F93CF931E
:1006C000DF93E82FF0E0E45DFD4FD490282F2695CE
:1006D0002695269530E0F901E453FD4F049187708B
:1006E00010E0082E02C0159507950A94E2F70170F4
:1006F0001127F901E454FD4FE490F12C082E02C0BB
:10070000F594E7940A94E2F791E0E922FF24F901D5
:10071000E455FD4FC491D0E002C0D595C7958A95A8
:10072000E2F7C170DD270115110519F081EE0E9475
:100730007E04E114F10419F086EE0E947E048D2DF2
:100740000E947D05EF2819F086EE0E941005012B0E
:1007500019F081EE0E941005CD2B51F08CE2DF9153
:10076000CF911F910F91FF90EF90DF900C947D053A
:10077000DF91CF911F910F91FF90EF90DF9008953F
:10078000EF92FF920F931F93CF93DF93EC01162FFD
:100790000AE08881882309F454C0813009F04EC0F2
:1007A0008981813099F47E0122E0E20EF11C8A8178
:1007B0000E947D05E7012196812F815050F3EFE9DA
:1007C000FFE03197F1F700C00000F7CF823041F42D
:1007D0007E0182E0E80EF11C8A810E947E04EACF4D
:1007E000833041F47E01E2E0EE0EF11C8A810E942A
:1007F0001005E0CF843011F02196DDCF2A812296BA
:1008000090E080E0AE014F5F5F4F2053330B2A3002
:10081000310548F0019778F2EFE9FFE03197F1F701
:1008200000C00000F7CF089FB001099F700D112490
:10083000C901860F971F2981EA01E4CF0E945A035C
:10084000BACFDF91CF911F910F91FF90EF90089554
:1008500060E00C94C00308950C942B0481E008958B
:100860000C942E040895CF93C82F0E942C048C2F33
:10087000CF910C943004CF93DF93CDB7DEB72B9795
:100880000FB6F894DEBF0FBECDBF4F835887698780
:100890007A878B8761110E944D0C1E821D8285E034
:1008A000FE013796DE01119601900D928A95E1F7CF
:1008B0008C819D81892B89F449815A816B817C814E
:1008C0008D819E810E944D0B2B960FB6F894DEBF52
:1008D0000FBECDBFDF91CF91089589819A81892381
:1008E0008F3F51F3CE0101960E94B7028111E4CFF0
:1008F000EBCFFC01808191810C94FB08CF93C82F32
:10090000882309F48BC08238C1F40E941E1E81FD29
:1009100085C089E30E94E70B0E94700C2FEF81EEE7
:1009200094E0215080409040E1F700C0000089E34E
:100930000E94EE0BCF910C94700C8338A1F40E94AE
:100940001E1E80FD6BC083E50E94E70B0E94700CA9
:100950002FEF81EE94E0215080409040E1F700C0FD
:10096000000083E5E5CF8438A1F40E941E1E82FDBD
:1009700055C087E40E94E70B0E94700C2FEF81EEB8
:1009800094E0215080409040E1F700C0000087E4EF
:10099000CFCF8CEF8C0F813A90F46C2F80910001B7
:1009A000909101010E94881E882329F08C2F0E94BB
:1009B000EE0B0E94700C8C2F0E94E70BBBCF80E2E5
:1009C0008C0F883048F4C77081E001C0880FCA9549
:1009D000EAF70E94300CAECFEBE5EC0FE33040F4C9
:1009E000F0E0EE59FE4F808190E0CF910C944A1ECA
:1009F000E8E5EC0FE73150F4F0E0EE0FFF1FEC5CA0
:100A0000FE4F80819181CF910C94601EC03F30F0E9
:100A10008C2F0E94F214CF910C94C515CF9108959C
:100A2000882309F452C0823871F40E941E1E81FF8F
:100A30004CC089E30E94E70B0E94700C89E30E947E
:100A4000EE0B0C94700C833859F40E941E1E80FF2C
:100A50003CC083E50E94E70B0E94700C83E5EFCF5A
:100A6000843859F40E941E1E82FF2FC087E40E9422
:100A7000E70B0E94700C87E4E2CF9CEF980F913A4D
:100A8000F0F290E2980F983050F4877091E001C036
:100A9000990F8A95EAF7892F0E94360CD2CF9BE5F1
:100AA000980F933020F490E080E00C944A1E98E573
:100AB000980F973120F490E080E00C94601E803F06
:100AC00020F00E944C150C94C51508951F93CF93E8
:100AD000DF93182FEB010E947E04209731F4812FC1
:100AE000DF91CF911F910C9410058FE99FE0019742
:100AF000F1F700C000002197F0CF70E060E089338B
:100B000011F460E570E00C946605882321F00E94E2
:100B1000300C0C94700C0895882321F00E94360C40
:100B20000C94700C0895BF92CF92DF92EF92FF92D7
:100B30000F931F93CF93DF936C01D62FC72FFC0128
:100B40001281058102950F700E94050CE82E882302
:100B5000A1F0E12E112389F08C2F807F803429F0C1
:100B600080E28D0FE12C883040F082E00E94C10CC1
:100B70000E94050C91E0E82EE926BC2EB2949FE07D
:100B8000B922FBE0FB1598F1EB2DF0E0E65EF74DA6
:100B90000C949F270C2F0F70C07F11F00295007FDF
:100BA0001123A9F0002359F080E28D0F883010F056
:100BB000D11109C0802F0E94300C0E94700C8D2F23
:100BC0000E947E0414C0802F0E94400CF6CF8D2F0F
:100BD0000E941005002359F080E28D0F883010F03C
:100BE000D1112CC0802F0E94360C0E94700C2B2D2E
:100BF0002850330B2430310520F40E941E1E0E9421
:100C00003304EE2009F469C10E94010C80FD65C126
:100C1000F60112820E94FB0B0E944508C6010E9449
:100C20008E070E94FB0BDF91CF911F910F91FF90D8
:100C3000EF90DF90CF90BF900C945008802F0E94CF
:100C4000460CD3CF2C2F2F70F22EC07FC03219F05C
:100C5000F29480EFF822DD2369F0D13049F11123BD
:100C600091F1002351F1F601858180FFA8CF8F70AB
:100C7000858323C0112381F0011106C00E94530C0B
:100C80008F290E948505B3CF0130C1F70E94530C14
:100C90008F290E94590CABCF011106C00E94660C2F
:100CA0008F2D0E948C05A3CF013009F4A0CFF6CF81
:100CB000112329F0063008F09ACF8F2DE2CF0530AE
:100CC00008F095CFEDCF002359F3D93349F4FFEF66
:100CD00027EE33E0F15020403040E1F700C0000043
:100CE0008D2F0E94100583CF8C2F8695869583705B
:100CF00069F0813009F07BCF8D2F9C2F93701111FB
:100D000002C090E080E00E94601E71CF8D2F9C2F6A
:100D10009370111102C090E080E00E944A1E67CFDC
:100D20008D2F112329F00E94F2140E94C5155FCF68
:100D30000E944C15FACF8C2F837079F5111157CF83
:100D40004D2F429546954770440F440F8D2F8F705D
:100D5000042E01C0880F0A94EAF72D2F2071D4FFCA
:100D600007C02FE030E001C0220F4A95EAF7209536
:100D7000C695C695C370822BC23049F058F4C13075
:100D800019F00E94260833CF0E94210830CF0E941C
:100D90002B082DCF0E941F082ACF8695112311F012
:100DA0008C2F8170882309F422CF4D2F42954695D0
:100DB0004770440F440F8D2F8F70042E01C0880F91
:100DC0000A94EAF72D2F2071D4FF07C02FE030E0FE
:100DD00001C0220F4A95EAF72095C695C695C370C3
:100DE000822BC23049F058F4C13019F00E946C08CF
:100DF000FECE0E946708FBCE0E947108F8CE0E94CA
:100E00003408F5CECF70112329F08C2F0E944508AD
:100E10008D2F37CF8D2F0E948C058C2F0E9450086C
:100E2000E6CED23F89F160F4D03FC9F0D13F29F13D
:100E3000112309F442C00111C2CE8C2F8F7121C041
:100E4000D33F39F1D43FA1F7112369F1CF718C2F32
:100E50000E94450863E08C2F0E94A60CC8CE112387
:100E600041F0053008F0C3CE8C2F8F710E945C08D2
:100E7000BECE063008F0BBCEF7CF8C2F8F7111237A
:100E800069F20E944508B3CE8C2F8F711123C9F3EC
:100E9000C5CF112329F08C2F8F710E943D08A7CE5A
:100EA0000E943A08A4CE81E00E94C10C023008F4EE
:100EB0009ECE82E00E94C10C9ACE002359F0D93315
:100EC00009F00ECF8FEF97EEE3E081509040E040C5
:100ED000E1F704CF8C2F8F71A1CFDF91CF911F91BC
:100EE0000F91FF90EF90DF90CF90BF9008950F93F8
:100EF0001F93CF93DF93EC01688179818A810E94EF
:100F000005098C010E9476080E941E08B801CE01D6
:100F1000DF91CF911F910F910C949305CF93DF93A5
:100F2000EC018B819C81892B29F08881998189230F
:100F30008F3F59F4DF91CF910895CE010E9477073A
:100F4000CE01DF91CF910C94B902CE010E94020331
:100F50008111F3CF0E94050C882361F38A818823D5
:100F600049F382E0DF91CF910C94C10C90E080E0D6
:100F70000E944A1E90E080E00E94601E0E944D0C7C
:100F80000E94500C0E94700C0E94EC160C94C51527
:100F90000E94F50B0C94B6070E943D0C0C94C807F8
:100FA000E92FE295EF70E250EE3070F4F0E0EA5D88
:100FB000F74D0C949F27803F19F020F4883E20F4D1
:100FC00081E00895843FE1F380E00895883EC0F316
:100FD000813FD1F7F5CF93FB882780F90895FC0175
:100FE000808191810E94FB080C94D007CF93DF93FE
:100FF00000D000D00F92CDB7DEB70F900F900F90BA
:101000000F900F90DF91CF910895CF93DF9300D091
:1010100000D000D0CDB7DEB726960FB6F894DEBF6D
:101020000FBECDBFDF91CF91089508950C941508A0
:101030000E9416088093CC010C94B60708950C9476
:1010400018089091CC01892B0C9418089091CC0130
:1010500089230C9418089091CC0189270C941808C6
:101060000C9415080C9430080E9432088093CB0130
:101070000C94B60780E00C94340891E001C0990FFD
:101080008A95EAF7892F0C94340821E030E001C0FA
:10109000220F8A95EAF78091CB01822B0C943408B9
:1010A00021E030E001C0220F8A95EAF72095809177
:1010B000CB0182230C94340821E030E001C0220FE0
:1010C0008A95EAF78091CB0182270C94340890919D
:1010D000CB01892B0C9434089091CB0189230C947B
:1010E00034089091CB0189270C9434080895E92F96
:1010F000EE0FE90FEE0F8E0F982F977041E001C0B1
:10110000440F9A95EAF786958695869593E0899F90
:10111000F0011124E754FE4F30E020E070E05191DF
:10112000DF011197CB01022E02C0969587950A9494
:10113000E2F7817081958527842385278C932F5F23
:101140003F4F2330310559F70895E92FEE0FE90F8E
:10115000EE0F8E0F982F977086958695869523E0D3
:10116000829FF0011124E754FE4F50E040E080E000
:10117000219130E0092E02C0369527950A94E2F7B6
:1011800021703327042E01C0220F0A94EAF7822B24
:101190004F5F5F4F4330510559F70895CF92DF926B
:1011A000FF920F931F93CF93DF936C010091CB01BC
:1011B0008091CC01082BC7E0D0E010E0FC2EC801E4
:1011C0000C2E02C0959587950A94E2F780FD0CC01D
:1011D0002197A0F7F12C8F2DDF91CF911F910F91C7
:1011E000FF90DF90CF900895B6018C2F0E94620F80
:1011F000019771F3F0CFCF93DF93EC010E94CE08FB
:10120000BE01DF91CF910C94620F1F93CF93DF93B8
:10121000EB019091B801992331F0CB01DF91CF918F
:101220001F910C94FB08882379F0CB010E94CE0813
:10123000182F682FCE010E947708BE01812FDF9101
:10124000CF911F910C94620FCB010E94A508182F1B
:10125000F4CF1F93CF93DF93C091CD0116E080911F
:10126000CE018C1304C0DF91CF911F910895D0E07F
:101270001C9FF0011D9FF00D1124E153FE4F408192
:10128000518162817381848195810E940508219634
:10129000C770E5CF4091FF015091000260910102BB
:1012A0007091020280910302909104020C9405084F
:1012B0001F93CF93DF9380910402807FA9F48091E4
:1012C0000102882389F08091CD01C091CE01609107
:1012D000FF0170910002A0910202B0910302D62F8B
:1012E000D72316E0C81304C0DF91CF911F91089552
:1012F00090E0109711F0DF3F19F401968770F2CF5C
:10130000189F9001199F300D1124F901E153FE4FF0
:1013100041814713F2CF40814613EFCF4281411103
:10132000ECCF438154814A1B5B0B4238510528F7AF
:10133000809104028F70806180930402F901EC5265
:10134000FE4F80818F70806180838FEF91E00E94DB
:101350008E07DF91CF911F910C942909AF92BF9214
:10136000CF92DF92EF92FF920F931F93CF93DF9371
:10137000CDB7DEB761970FB6F894DEBF0FBECDBF15
:101380008C0185E0F801DE011D9601900D928A9591
:10139000E1F7F801E2808FEFC82E81E0D82E60914E
:1013A0000202709103026115710509F45AC190910E
:1013B000FF0120910002892F82238F3F09F451C140
:1013C00040815181A380B480F0900102F501E61BB9
:1013D000F70BFF2009F4F6C080910402382F307F0C
:1013E000E238F10508F0AFC0311179C0FE2C2513A9
:1013F00023C0941321C0E1101FC08F7080618093BF
:1014000004020E944A09C6010E948E0780910402CC
:10141000F80185838F2D61960FB6F894DEBF0FBE5D
:10142000CDBFDF91CF911F910F91FF90EF90DF9093
:10143000CF90BF90AF900895AB2829F0842F8523DB
:101440008F3F09F027C180E0F82FF170DF2E80FF79
:101450003CC08091CD012091CE0136E0821315C0B1
:101460004D875E878D859E850E94FB08292F2295DA
:101470002F702230F0F0243018F59F70F1F0F80151
:101480009581907FD1F4D12C1EC090E0389FF0015F
:10149000399FF00D1124E153FE4F6181651306C0A1
:1014A0006081641303C06281E6120FC001968770E9
:1014B000D5CF9F7011F0882331F3805E883018F308
:1014C000C8010E948E07FD2CA5CFEE2009F4A2CF03
:1014D00080910402816080930402F12C9BCF25133C
:1014E00006C0941304C0F801EE2009F487C0C801B7
:1014F0000E94EF07882319F1EE2009F18091040280
:10150000803270F02091FF013091000238872F83E4
:101510001986BB86AA868C87CE0107960E948E0705
:1015200086E0F801AFEFB1E001900D928A95E1F706
:101530000E9458090E944A09FF24F3946BCFC80106
:101540000E948E07F9CF311113C07A2DB98AA88A6B
:101550006E2D89890E94F6078FEF91E00E948E0719
:1015600086E0F60111928A95E9F70E944A09B5CF03
:1015700025130FC094130DC0E1100BC0F801858333
:10158000C8010E948E0786E0F60111928A95E9F75C
:1015900041CFC8010E94EF07882389F2EE2079F23B
:1015A00080910402803208F4BBCF2091FF0130917A
:1015B00000023A8329831B82BD82AC828E83CE01D6
:1015C0000196ACCFE238F10508F03EC0FE2CEE20CB
:1015D00009F4B5CF25132AC0941328C080910402C2
:1015E00080FD1BC0982F907FC1F0F8018583903F4C
:1015F00031F0982F907F905F8F70892B8583C80181
:101600000E948E0786E0F801AFEFB1E001900D92E5
:101610008A95E1F70E944A09FDCE86E0F801AFEF16
:10162000B1E001900D928A95E1F7F4CEC8010E94D5
:10163000EF07811175CF80910402816080930402CD
:10164000C8010E948E07E6CE7A2DB98AA88A6E2D2F
:1016500089890E94F60786E0F60111928A95E9F7DA
:10166000D9CFEE2009F46BCFC8010E94EF07F82E06
:10167000882309F464CF86E0F801AFEFB1E0019070
:101680000D928A95E1F78FEF91E00E9479040E9414
:101690005809C0CF81E08E25D7CE1F93CF93DF931B
:1016A000CDB7DEB72C970FB6F894DEBF0FBECDBF17
:1016B0004F83588769877A878B879C87CE010796E7
:1016C0000E94AE09882369F08A859B85892B39F0B1
:1016D0004F815885842F85238F3F09F071C016E014
:1016E0005FC086E0FE013796DE01119601900D92F3
:1016F0008A95E1F78A859B85892B89F38F81988567
:1017000089238F3F61F32091CE0130E0C90101961A
:10171000877099274091CD014817190671F40E94EE
:10172000CC071092CE011092CD0186E0EFEFF1E0F0
:10173000DF011D928A95E9F7D2CF96E0929FD00102
:10174000939FB00D1124A153BE4FFE01319601901D
:101750000D929A95E1F78093CE010E942909BFCF9F
:10176000819FC001112481539E4F0E94AE0988239E
:10177000E9F0E091CD011E9FF0011124E153FE4FED
:101780004081518162817381848195810E94050825
:101790008091CD0190E00196877099278093CD01CB
:1017A0008091CD019091CE018913DACF2C960FB69E
:1017B000F894DEBF0FBECDBFDF91CF911F9108958A
:1017C00069857A858B859C850E94050888CF682F5E
:1017D00080910001909101010C94BE1E682F8091B0
:1017E0000001909101010C94C01E80910001909124
:1017F00001010C94C21E8091050285958595859501
:101800000895809105028770089590910502977060
:1018100081E009F480E0089590916B0292FB222709
:1018200020F9281751F080FB92F990936B02809178
:101830006A0290916B020C94040D089580916B02E2
:1018400082FB882780F991E089270C940C0C81E0B9
:101850000C940C0C80E00C940C0C809111020895F7
:1018600090911102892B8093110208958095909197
:101870001102982390931102089510921102089575
:1018800090911002892B8093100208958095909179
:101890001002982390931002089510921002089558
:1018A00010920F02089580910602089508950C94F5
:1018B000560C90916B0292FD08C090910602981709
:1018C00021F0809306020C94570C08958091060233
:1018D000882329F01092060280E00C94570C08959A
:1018E000E0910001F0910101809111028083E0916B
:1018F0000001F0910101808190911002892B808379
:10190000E0910001F0910101808190910F02892BFB
:10191000808390910602992381F0E0910001F0917B
:1019200001018081892B80838091000190910101C8
:101930000E94761E81110E94660C80910001909198
:1019400001010C94311E08950C94A30C90916B022C
:1019500092FD10C098E0899F90011124622B609342
:1019600005020E944508809105028595859585951B
:101970000C94A40C0C9445081092050280E00C9481
:10198000A40C909105028095892380930502282F4D
:10199000277039F4282F082E000C330B92171306EA
:1019A00021F490916B0292FF07C0859585958595EE
:1019B0000E9450080C94BC0C08956FEF7FEF90E0EC
:1019C00080E00C94022890E080E00E94DE27893EAF
:1019D0009E4F11F40C94FA1680E0089582E090E096
:1019E0000C94D62783E090E00C94D627CF9384E024
:1019F00090E00E94D627C82F82E290E00E94D6276E
:101A0000982F8C2FCF910895CF93C92F682F84E002
:101A100090E00E94E4276C2F82E290E0CF910C943A
:101A2000E427AB01BC018FE090E00C94F627AB01FA
:101A3000BC0183E190E00C94F62760E070E0CB01FC
:101A40000C94170D60E070E0CB010E94110D0C9416
:101A50001D0D69EE7EEF90E080E00E94022860E0BC
:101A600082E090E00E94E42760E083E090E00E9442
:101A7000E4271092CC0160E084E090E00E94E4272B
:101A800060E082E290E00E94E42760E085E090E080
:101A90000E94E42760E086E090E00E94E4276FEF78
:101AA00087E090E00E94E42740E050E0BA0188E03F
:101AB00090E00E94F62760E08DE090E00E94E4272D
:101AC00040E050E0BA0188E190E00E94F62760E033
:101AD00087E190E00E94E42740E050E0BA018CE109
:101AE00090E00E94F62770E060E080E290E00E94C3
:101AF000022840E050E0BA0188E190E00E94F62719
:101B000080E00E9413170E9439170C94220D0C9448
:101B1000290D682F8EE090E00C94E4270E94991F15
:101B200060931F02709320028093210290932202FF
:101B300060931B0270931C0280931D0290931E02FF
:101B4000089585B7806885BF85B7806885BF08958B
:101B5000089508950C94A80D08950C94AC0D0E945E
:101B6000A10D80E490E10E9418200E94A90D0C9420
:101B7000AA0D0C943112089508950E94BB0D0C9487
:101B8000BC0D0E94841F0E94C91E0E9448170E941B
:101B90002A110E94D4190C94AD0DAF92BF92CF922E
:101BA000DF92EF92FF920F931F93CF93DF93CDB706
:101BB000DEB72A970FB6F894DEBF0FBECDBF0E94E6
:101BC000A71181110E948E0D83E1A82E82E0B82E0C
:101BD00010E000E0C02E802F0E947A10E82EF50160
:101BE000F1905F01F81609F44DC08091230281FD48
:101BF0000E9480108F2D8E25D12CFF24F394982FD6
:101C00009F21D9F10E94B90D882399F0DE82CF82FD
:101C1000EF2081E009F480E088870E948D1F8160B9
:101C2000782F9A8789874E815F8168858A850E948F
:101C30003B04F801ED5EFD4F8081F826F0820E94A2
:101C4000E0150E941E1E90911202891791F10E94C8
:101C50001E1E809312022A960FB6F894DEBF0FBEA6
:101C6000CDBFDF91CF911F910F91FF90EF90DF904B
:101C7000CF90BF90AF900C943304D394FF0CF6E058
:101C8000DF12BDCF0F5F1F4F0830110509F0A2CF43
:101C90008FEF89838A831B820E948D1F8160782F3A
:101CA0009D838C8349815A816B818D810E943B0485
:101CB000C6CF2A960FB6F894DEBF0FBECDBFDF9118
:101CC000CF911F910F91FF90EF90DF90CF90BF9039
:101CD000AF900895CF93DF930E94660FEC018115BA
:101CE00021E5920708F042C0811530E5930708F01E
:101CF0009DC0883E910530F5803E910508F092C068
:101D0000883A910588F4853A910508F084C08130BD
:101D1000910509F487C0009709F484C0049708F07E
:101D200081C0D0E0C0E07EC08F3B9105D0F7C85A9B
:101D3000D0E0CC0FDD1FCB59DE4F0990D881C02DEC
:101D4000D46470C08115904250F4C11581E0D80769
:101D500008F068C0C03FD10520F3D06563C0C1154D
:101D600090E4D907F0F2DF70D06A5CC0811525E5F8
:101D7000920700F5811534E5930708F08BC08115B3
:101D800043E5940708F073C0C11582E5D80708F44D
:101D900069C0CE018370992721E030E002C0220F94
:101DA000331F8A95E2F7C695C69580E2C89FE00189
:101DB000112454C0C11599E5D907A8F4C11528E527
:101DC000D20708F06CC0C11536E5D30708F0A9CFDB
:101DD0008C2F0E94FD0FC82FD0E0DC2FCC27CC2702
:101DE000DF71D0621FC0C1154AE5D40708F45CC09A
:101DF000CE0190568115904208F093CF8D2F8F71B0
:101E00000E94FD0F90E0982F882788279F719C01E2
:101E10002C2BE901E6CFC55AD0E0CD56DE4FC88164
:101E2000D0E0D064CE01DF91CF910895E4E09695A3
:101E30008795EA95E1F783702C2F269526952370D8
:101E400040E2249F90011124382B8C2F8370C1E035
:101E5000D0E002C0CC0FDD1F8A95E2F7C22BD32B56
:101E6000DC68E0CFDC2FCC27C16FD06ADBCF83707A
:101E7000992721E030E002C0220F331F8A95E2F754
:101E8000C695C69590E2C99FE0011124C22BD32BC1
:101E9000DA68C8CFD82FCC27C46FD06AC3CFDC2F65
:101EA000CC27C06FD06ABECF8C2F8F700E94FD0FE1
:101EB00034E0D695C7953A95E1F7CF709C2FEC01A9
:101EC000D069B0CF0E9409190C946A0E823891052E
:101ED000B1F1B0F48133910509F475C048F4893249
:101EE000910509F469C08A32910509F473C0089517
:101EF0008533910509F459C08933910501F108959D
:101F0000833E9105A9F138F4803E9105F9F0823EB7
:101F1000910549F10895863E9105A9F1873E910505
:101F2000C9F1843E910519F520916B0221FF1FC074
:101F300080916A0284FD14C087EE90E0089520919C
:101F40006A022370A1F080EE90E0089520916A0269
:101F500020FD47C030916B0230FF09C024FF44C010
:101F600090E080E004C020916A0222FDF7CF08953E
:101F700020916A0222FD3BC030916B0230FDE3CF1D
:101F800024FFF5CFEDCF20916A0223FFF0CF24FD8F
:101F9000E7CFD2CF20916A0223FD2CC030916B0293
:101FA00031FFEECF84EE90E0089520916A0225FF84
:101FB000DECF89E290E0089520916A0225FFD7CF15
:101FC00085E390E0089520916A0226FFD0CF8AE24F
:101FD00090E0089520916A0226FFC9CF81E390E046
:101FE000089589E390E0089583EE90E0089582EEED
:101FF00090E0089586EE90E0089590916A0292FF35
:1020000006C0282F28712830F9F4877F846093FF59
:1020100006C0282F28712831F1F4877E8461209131
:102020006B0220FF06C0382F38713830D9F4877F13
:10203000816021FF06C0282F28712831D1F4877EC6
:10204000816194FD877E0895282F24712430F9F64C
:102050008B7F8860DCCF282F2471243101F78B7EA1
:102060008861DDCF382F3171313019F78E7F88606C
:10207000E0CF282F2171213121F78E7E8861E1CFB9
:1020800080E008950C94DD0C0E94A7118FE39CE979
:102090000197F1F700C000000E94A71180E00E94A4
:1020A0007A1080FF04C00E9442100C94F41F08951F
:1020B0000C9444100E94E30C811102C00E94870D11
:1020C0000E94EE0C809323020E94F60C90936B0208
:1020D00080936A020E9458100E94F20C0E941F080E
:1020E0008091CB010C94320808950C9474100895DB
:1020F0000C947710E82FF0E0EC58FD4F80810895A4
:10210000089580EA8A95F1F7089500C008950C9427
:102110008110F894E82FE295EF70F0E031A1282FBC
:102120002F7081E090E001C0880F2A95EAF7982F80
:102130009095932391A392A1892B82A378940895DB
:1021400008950C94A010CF93DF9384E90E94891026
:1021500086E60E94891087E90E94891086EC0E9419
:102160008910C6E9D1E089918F3F11F00E94891052
:1021700081E0CC39D807B9F7DF91CF910895CF929C
:10218000DF92EF92FF920F931F93CF93DF93EC01B7
:10219000D62E062F10E0C80184569E4F7C01FC010C
:1021A00080818F3F09F44BC0F894E82FE295EF70DF
:1021B000F0E091A18F7021E030E001C0220F8A95FC
:1021C000EAF7892F822B81A382A12095282322A3BD
:1021D00078940E948510E6E9F1E030E020E0C12C1F
:1021E00051E041914F3FA1F1A42FA295AF70B0E013
:1021F00090968C9190E04F7002C0959587954A9586
:10220000E2F780FD25C0852F022E01C0880F0A94B9
:10221000EAF7C82A2F5F3F4F2630310511F7F70143
:1022200080818F3F11F00E94891061E0C11001C0D0
:1022300060E08D2D0E948710C00FD11FC882DF91F2
:10224000CF911F910F91FF90EF90DF90CF90089565
:1022500080E0DFCF0E944B12809102018091020149
:1022600094E0811190E090937D0284E0891B80933B
:102270007C020E94A310ECE6F2E0A4E7B2E0119227
:102280001D9282E0E437F807D1F784E00E94FA114A
:102290000E94EA020C9455121F93CF93DF9300D053
:1022A00000D0CDB7DEB70E943112182F60917D02A9
:1022B000882309F43FC019821A821B821C82862F50
:1022C00090E0BE016F5F7F4F8C589D4F0E9463125C
:1022D000E0917C029E012B5F3F4FF0E0882301F1EB
:1022E000BF016C587D4FDE01119610E0FB0141915A
:1022F000BF019D91491731F0AF0141505109FA01D9
:102300009083182FA217B30789F70E94F002812F3C
:102310000F900F900F900F90DF91CF911F91089524
:10232000EC58FD4FDE01119611921D92A217B307D2
:10233000D9F7EBCF70E06C587D4F80917C0290E034
:102340008C589D4F0E94F0120E94A110E0CFEF9296
:10235000FF920F931F93CF93DF93CDB7DEB72897EC
:102360000FB6F894DEBF0FBECDBF8E010F5F1F4FBB
:1023700088E0F80111928A95E9F7F12C6F2DC801D8
:102380000E94BF10F394F4E0FF12F8CF48E050E051
:10239000B8018CE692E00E94C0277C0121E0892BE5
:1023A00009F420E0E114F10441F088E0F801ACE622
:1023B000B2E001900D928A95E1F760917D0270E0A4
:1023C0006C587D4F44E08CE692E00E94FB1181E066
:1023D00090E0EF2811F40E944C1128960FB6F89463
:1023E000DEBF0FBECDBFDF91CF911F910F91FF9048
:1023F000EF9008950895FF920F931F93CF93DF936B
:10240000F82E092F162FD72FC42F222349F081E051
:10241000809326020E948D1F9093250280932402B0
:10242000809126028823A1F08091240290912502B8
:102430000E94A51F059760F0EF2DF02FA12FBD2F53
:10244000CE0FDF2FD11DEC17FD0741F410922602AD
:10245000DF91CF911F910F91FF90089581918D93FE
:10246000F2CF80912902811107C00E947E27882324
:1024700051F081E08093290281E09091290291300E
:1024800009F080E0089582E0809329020E94792774
:10249000F3CF0C9431120E944912809302010E94E2
:1024A000311281110C94991208950E9431128111F8
:1024B00002C00C949B12089581E090912A029A30F8
:1024C00008F080E008950F931F93CF93DF93EC0102
:1024D0008B0180912A028A30B8F4B801CE010E94A3
:1024E000EE12C82F811122C080912A028F3FB9F4C9
:1024F0000E948D1F90932802809327028C2FDF91DA
:10250000CF911F910F9108958091270290912802F9
:102510000E94A51F843F914000F7C0E0EFCF8F5F7E
:1025200080932A028A3020F7C1E0E8CF10922A0275
:10253000E5CF0C94581C0C945B1CEF92FF920F9308
:102540001F93CF93DF937901C82F880FDD0B4115BF
:102550005105A9F08AE08C9FF0018D9FF00D1124A8
:10256000ED5FFE4F83819481855D9D4F228130E038
:102570004217530708F49A01A9010E94CD27CE0102
:102580000E94651D892B11F501151105E9F08AE0FE
:102590008C9FF0018D9FF00D1124ED5FFE4F458162
:1025A00050E00417150708F4A8018AE08C9FF00199
:1025B0008D9FF00D1124ED5FFE4F66817781655D83
:1025C0007D4FC7010E94CD2781E001C080E0DF91EF
:1025D000CF911F910F91FF90EF9008950C940E14DE
:1025E0000C942A140F931F93CF93DF9300D000D045
:1025F000CDB7DEB7609140027091410280914202F6
:10260000909143020E94B41F11E064367105810568
:10261000910518F10E94EF1E6E5F7F4F8F4F9F4F05
:1026200069837A838B839C8310E000E030E020E0B4
:1026300044E050E0BE016F5F7F4F82E00E949D1238
:10264000182F882351F00E94991F609340027093C5
:1026500041028093420290934302812F0F900F908A
:102660000F900F90DF91CF911F910F910895AF922E
:10267000BF92CF92DF92EF92FF920F931F93CF936F
:10268000DF9300D000D00F92CDB7DEB75B01E090B2
:10269000A401F090A50101E010E09E012B5F3F4FE7
:1026A00050E040E070E060E080E00E949D12182F52
:1026B000882309F44BC067018FEFC81AD80A6091CC
:1026C0003C0270913D0280913E0290913F020E9437
:1026D000B41F643671058105910580F104E010E0B6
:1026E0009E012F5F3F4F50E040E070E060E081E0EE
:1026F0000E949D12F82E64E070E0C6010E94D51978
:1027000011E09D81981310E01F2159F10E94991F3B
:1027100060933C0270933D0280933E0290933F028F
:1027200089819A81AB81BC81809338029093390270
:10273000A0933A02B0933B0211E013C064E070E052
:10274000C6010E94D5199D818913C8CFF7018181E7
:102750009281A381B48189839A83AB83BC83111155
:10276000DFCF8091380290913902A0913A02B09166
:102770003B02F50180839183A283B383812F0F9065
:102780000F900F900F900F90DF91CF911F910F91AD
:10279000FF90EF90DF90CF90BF90AF900895AF92F1
:1027A000BF92CF92DF92EF92FF920F931F93CF933E
:1027B000DF937C015B016A010E945C1201E010E082
:1027C000882311F00AE010E0C1E0D0E0F894B501F0
:1027D000C701F60109957894811104C021960C1760
:1027E0001D075CF4DF91CF911F910F91FF90EF9047
:1027F000DF90CF90BF90AF900895CC9F9001CD9F78
:10280000300D300D112490E080E045E34A95F1F75A
:102810000000019682179307C1F7D8CF0F931F933B
:10282000CF93DF93EC018B0147E353E10E94CF1379
:10283000882351F042EF52E1B801CE01DF91CF91F0
:102840001F910F910C94CF1380E0DF91CF911F91D6
:102850000F9108950F931F93CF93DF93F894C09136
:10286000A401D091A501CE01019624E0FB01DC0179
:1028700001900D922A95E1F764E070E00E94D5196D
:1028800088837894F8946D817E818F8198850091FA
:1028900034021091350220913602309137026017D0
:1028A00071078207930751F06093340270933502E9
:1028B00080933602909337020E94D21E7894DF9163
:1028C000CF911F910F9108950E940A1F0E94AB2182
:1028D0000E94C4210E94D6210E94BD0DFBCF809191
:1028E0004A0280FF12C06091260185E0689FB00116
:1028F0001124759567957595679560387105A8F5EC
:1029000061157105A1F1862F089581FF09C06091BD
:10291000260185E0689FB001112475956795EDCF7C
:102920006091260182FD0AC0809149028823D1F07E
:102930009091250160912601891728F085E0689F14
:10294000B0011124DACF869FB001112485E0869F63
:102950009001879F300D1124692F70E0C9010E94FA
:102960008B27CBCF65E070E0CECF8FE7089581E075
:10297000089580914A0280FF0CC06091220170E0AE
:1029800075956795759567956115710549F1862F60
:10299000089581FF06C06091220170E075956795EA
:1029A000F3CF6091220182FD0BC0909148029923E0
:1029B000A1F06091210180912201961738F0682FD3
:1029C00070E06038710500F38FE70895899FC001BA
:1029D000112470E00E948B27F4CF61E070E0D7CF24
:1029E00081E00895803F31F40E946F1481958093B7
:1029F0004E020895813F19F40E946F14F8CF823F70
:102A000031F40E946F14819580934D020895833FA5
:102A100019F40E946F14F8CF893F29F40E94B91469
:102A200080934F0208958A3F21F40E94B914819542
:102A3000F7CF8B3F31F40E94B914819580935002F7
:102A400008958C3F19F40E94B914F8CF9CE0980FB8
:102A5000953070F4845F990B21E030E001C0220FC3
:102A60008A95EAF780914C02822B80934C0208955C
:102A70008D3F31F480914A02816080934A0208952B
:102A80008E3F21F480914A028260F7CF8F3FB9F7E1
:102A900080914A028460F1CF40914D02803F59F409
:102AA00080914E0287FF0DC010924E0241110BC063
:102AB0001092490208C0813F81F480914E0218169D
:102AC0009CF3442381F080914F0290915002892B16
:102AD00009F05AC0109248020895823F49F447FF16
:102AE000F0CF10924D0280914E028111ECCFE0CFD9
:102AF000833F19F41416ACF3E4CF90914F02893F51
:102B000029F41916F4F610924F02DBCF8A3F19F41C
:102B100097FFD7CFF8CF909150028B3F29F497FFC2
:102B2000D0CF10925002CDCF8C3F19F41916CCF3B0
:102B3000C8CF9CE0980F953090F4845F990B21E00A
:102B400030E0B90102C0660F771F8A95E2F7CB012A
:102B5000809590914C02892380934C02B2CF8D3F97
:102B600031F480914A028E7F80934A02AACF8E3F31
:102B700021F480914A028D7FF7CF8F3F09F0A1CFDA
:102B800080914A028B7FF0CF08950E948D1F9C0197
:102B900090914D0280914E02982B21F03093470284
:102BA0002093460290914F0280915002982B21F081
:102BB00030934502209344028BE492E00C943C1E37
:102BC000EF92FF920F931F93CF93DF9300D000D02B
:102BD00000D0CDB7DEB786E0EBE4F2E0DE0111967F
:102BE00001900D928A95E1F7E0904D02F0904E022F
:102BF00000914F021091500210924D0210924E021D
:102C000010924F02109250028E2D8F2991F08091D8
:102C10004602909147020E94A51FAC019091490283
:102C2000992309F43FC0809127018417150608F401
:102C300047C0802F812B91F08091440290914502F2
:102C40000E94A51FAC0190914802992309F477C016
:102C5000809123018417150608F47FC080914D02EE
:102C600090914E02892B90914F02892B90915002A6
:102C7000892B11F00E94C51586E0FE013196ABE468
:102C8000B2E001900D928A95E1F726960FB6F8947E
:102C9000DEBF0FBECDBFDF91CF911F910F91FF908F
:102CA000EF900895209128018AE0289F9001112437
:102CB0002417350708F0BDCF9F5F9093490202C0EB
:102CC0009F3FD1F7EE2059F00E946F149FEF1E1422
:102CD0000CF491E0899F802D112480934D02FF20F8
:102CE00059F00E946F149FEF1F140CF491E0899F1C
:102CF000802D112480934E0230914D02332309F42C
:102D000098CF20914E02222309F493CF45EB340350
:102D1000C0011124992359F090934D0245EB2403EF
:102D200090011124332339F030934E0282CF81E099
:102D300080934D02F3CF81E080934E027ACF2091B1
:102D400024018AE0289F900111242417350708F0F8
:102D500085CF9F5F9093480202C09F3FD1F7002329
:102D600059F00E94B9149FEF10160CF491E0899F5E
:102D7000802D112480934F02112359F00E94B91421
:102D80009FEF11160CF491E0899F802D1124809300
:102D9000500230914F02332309F460CF209150024A
:102DA000222309F45BCF45EB3403C001112499239E
:102DB00059F090934F0245EB2403900111243323E3
:102DC00039F0309350024ACF81E080934F02F3CF25
:102DD00081E08093500242CF86E0EBE4F2E0DF0135
:102DE0001D928A95E9F710924902109248021092BA
:102DF0004A02089583E290E00E94D627813289F446
:102E000084E290E00E94D627893059F485E290E070
:102E10000E94D62791E0823009F090E0892F8170DE
:102E2000089580E0FCCFCF93C82F6FEF811161E24E
:102E300083E290E00E94E4276FEFC11169E084E231
:102E400090E00E94E4276FEFC11162E085E290E01C
:102E5000CF910C94E427089586E290E00E94D62753
:102E6000682F70E090E080E0089586E290E00C9496
:102E7000E42780E00E94131760E070E0CB010E941D
:102E800035170E9481180E946D1981E00C94131768
:102E90000E942B170E94FA16811102C00C94391758
:102EA0000895CF93FB01C281CC2309F19C012251EB
:102EB0003F452031310520F582510E947D19C0E047
:102EC0008C2FCF91089581E00E94450843E062E095
:102ED00081E00E94E102F3CF81E00E94500843E0CC
:102EE00062E081E00E94E102EBCF82E0F6CF803128
:102EF000FFE59F0789F381319F45B9F3C1E0E0CF3A
:102F00008031EFE59E07F9F281319F45C9F682E0F5
:102F1000DBCF2FEFFC0120830895EF92FF920F93F8
:102F20001F93CF93DF93EC01062FE881E150E3314B
:102F300008F05EC0F0E0EC5CF74D0C949F2719821E
:102F400089E08A83602FCE01DF91CF911F910F918D
:102F5000FF90EF900C94A0208981823069F083303B
:102F600071F08130D9F40E94991F0E94A5276A83CD
:102F70007B838C839D83E6CF0E942C17F6CF7E0146
:102F800082E0E80EF11C10E0812F0E947A10F70118
:102F900081937F011F5F1830B9F7D4CF602FCE0126
:102FA0000E948917CFCF89818230C1F76A817B81E6
:102FB0008C819D810E94A5270E943517C3CF4B812C
:102FC0006A8189810E9453189827892798279D83B1
:102FD0008C83B8CF2C813D813227232732274B8128
:102FE0006A8189810E946C18ADCF0E948118AACF96
:102FF0008FEF8883A7CF0E9416198983A3CF0E94E1
:1030000018199827892798279A8389839BCF6B81E2
:1030100070E089819A81AE014C5F5F4F98278927C4
:1030200098270E941B198ECF6B8170E089819A814D
:10303000AE014C5F5F4F9827892798270E9442195D
:1030400081CF0E946D197ECF0E944118D6CF6B812F
:1030500070E089819A81AE014C5F5F4F9827892784
:1030600098270E94B9186ECF6B8170E089819A8190
:10307000AE014C5F5F4F9827892798270E94DF1881
:1030800061CF84E0089550E0440F551F9CE0699F94
:10309000400D511D112490E6899F400D511D1124B2
:1030A000CA01879608950F931F93CF93DF930E94D1
:1030B00043188C010E94D627C82FD0E0DC2FCC27E4
:1030C000C80101960E94D6279E01282BC901DF91D5
:1030D000CF911F910F9108950F931F93CF93DF937B
:1030E000122F032F0E944318EC01602F0E94E42747
:1030F000612FCE010196DF91CF911F910F910C941A
:10310000E427AF92BF92CF92DF92EF92FF921F938C
:10311000CF93DF938CEAC82E80E0D82ED0E07601E2
:10312000C0E014C0F50125913491412F6C2F8D2FF3
:103130000E946C1882E0A80EB11C1F5F163091F738
:103140008CE0E80EF11CCF5FC83019F0570110E099
:10315000E9CFDF5F80E6C80ED11CD43001F7DF91E4
:10316000CF911F91FF90EF90DF90CF90BF90AF90E5
:103170000895EF92FF920F931F93CF93DF93EC018B
:103180008A017C01E60EF71ECE018796CE15DF057B
:1031900039F4DF91CF911F910F91FF90EF90089537
:1031A000C03821E0D20740F40E94D627F80180837E
:1031B0000F5F1F4F2196E8CFF8011082F9CFCF9211
:1031C000DF92EF92FF920F931F93CF93DF937C01D7
:1031D0006A018C01060F171FEC01CE018796C017FC
:1031E000D10749F4DF91CF911F910F91FF90EF909C
:1031F000DF90CF900895C03821E0D20740F4FE015F
:10320000EE19FF09EC0DFD1D60810E94E427219657
:10321000E4CF462F843038F4783028F4663018F440
:10322000672F0C94531890E080E0089580E1089592
:1032300089E592E00895EF92FF920F931F93CF9349
:10324000DF93EC018A017C01E60EF71ECE01895561
:103250009E4FCE15DF0539F4DF91CF911F910F916D
:10326000FF90EF900895C93522E0D20740F40E9404
:10327000D627F80180830F5F1F4F2196E7CFF80113
:103280001082F9CFCF92DF92EF92FF920F931F93AC
:10329000CF93DF937C016A018C01060F171FEC01AD
:1032A000CE0189559E4FC017D10749F4DF91CF91C8
:1032B0001F910F91FF90EF90DF90CF900895C93547
:1032C00022E0D20740F4FE01EE19FF09EC0DFD1DCE
:1032D00060810E94E4272196E3CFCF93DF93C7EA72
:1032E000D1E060E0CE010E94E4272196C11584E080
:1032F000D807B9F7DF91CF910895DF92EF92FF924F
:103300000F931F93CF93DF9300D000D0CDB7DEB7DC
:10331000F82E8FE08F1540F08FEF93E00E94D627B4
:1033200007EA11E08823C1F00F900F900F900F90E3
:10333000DF91CF911F910F91FF90EF90DF90089553
:10334000011584E0180781F3C8010E94D627811176
:1033500001C0FA940F5F1F4FF110F2CF19821A8249
:103360001B821C82DD24D39478018FEFE81AF80ABF
:10337000C8010E94D62789831A828823A9F29FEF69
:10338000980F933078F48A83D9820E5F1F4FC7015C
:103390000E94D6278B83882339F2CE0101960E94A2
:1033A0002804E2CF8701F9CF0895FC01680F791F47
:1033B0008FEF91E36E177F0709F40895219182271B
:1033C00028E030E087FF06C0880F892721503109A7
:1033D000C9F7F0CF880FFACF0F931F93CF93DF93E6
:1033E000C42FD22FFC0182818823C9F0409353025D
:1033F0000E948D1F909352028093510280E28C0FA5
:10340000883008F050C0C77081E001C0880FCA95AD
:10341000EAF7DF91CF911F910F910C9485051091E0
:103420005302141335C080915102909152020E94B0
:10343000A51F8238910560F5C0E2CD0F1D17B9F0C8
:1034400080E2810F883040F4177081E001C0880F5E
:103450001A95EAF70E948C05C83048F481E09D2F48
:10346000977001C0880F9A95EAF70E948505802F12
:103470000E947D05C830B8F4D77081E001C0880F84
:10348000DA95EAF7DF91CF911F910F910C948C059B
:1034900080E28C0F883038F4C77081E001C0880F5B
:1034A000CA95EAF7EFCFDF91CF911F910F91089561
:1034B0000F939C01CB01233F4CE5340759F1A8F44D
:1034C000283DFCE53F0701F1293D4CE53407D1F1EA
:1034D000273D3C4591F406E221EE41EE67ED7CE5A7
:1034E0000E94EC1980E00F910895253FFCE53F070D
:1034F000E9F0B0F0263F3C45F9F0FC0182818823D9
:1035000039F110925302EFCF07E225EE45EE68ED58
:103510007CE5E6CF06E221EE40EE63EF7CE5E0CF0E
:1035200007E225EE44EE64EF7CE5DACF06E221EE19
:1035300042EE65EF7CE5D4CF07E225EE46EE66EF7E
:103540007CE5CECF08E221E045EE69ED7CE5C8CF11
:1035500081E0C9CFCF93DF93EC01FB018281882307
:1035600009F419C1C230FCE5DF07C0F1C6319CE5A2
:10357000D90730F09E012A5F3C452930310570F5AE
:103580000E94F60C90936B0280936A02C031ECE5C6
:10359000DE0709F4CFC008F05BC0C8308CE5D8075F
:1035A00009F4B6C088F5C430ECE5DE0709F4A8C01C
:1035B000C0F4C2308CE5D80709F49CC080916A023F
:1035C0008260C330DC4509F498C080916A02909112
:1035D0006B020E94040D0E94CC0780E0DF91CF9126
:1035E000089580916A028061C630ECE5DE0709F437
:1035F00084C080916A028860C730DC4508F47DC0D1
:1036000080916A02806279C0CC308CE5D80709F4D9
:1036100089C070F480916A028C60CA30ECE5DE07E4
:1036200009F46BC008F478C080916A028E7F65C08F
:10363000CE308CE5D80709F479C080916A028B7F7F
:10364000CF30DC4508F459C080916A028F7E55C0A6
:10365000CB3FECE5DE0709F457C030F5C3318CE50C
:10366000D80709F46FC078F4C131ECE5DE0709F43E
:1036700065C0C231DC4509F0A8CF0E94CC0780911B
:103680006A028F773AC0C5318CE5D80709F462C069
:1036900008F476C080916B028160CA3FDC4509F076
:1036A00094CF80936B0291CFCF3FFCE5DF0709F405
:1036B0004DC088F480916B028D7FCD3F9CE5D9078A
:1036C00081F380916B028E7FCE3FDC4550F3809179
:1036D0006B028360E6CFC130FDE5DF0709F459C016
:1036E00008F444C080E0C230DD4509F06ECF0E948E
:1036F000890D6BCF80916A02816080936A0265CFE9
:1037000080916A028460F9CF80916B028260C9CF98
:1037100080916A028064F1CF0E94CC0780916A0296
:103720008068EBCF80916A028D7FE7CF80916A023B
:10373000877FE3CF80916A028F7DDFCF80916A021D
:103740008F7BDBCF80916A02837FD7CF80916B0222
:103750008C7FA7CF80916A0282FB992790F921E0A4
:10376000922790FB82F990FB83F9C7CF80916B027F
:10377000982F909591708E7F892B90FB81F991CF36
:103780000E94CC0790916A02892F97FB87F9805895
:10379000B4CF81E0ACCF81E021CFCF93DF93EB01B9
:1037A00086319C4511F50E942D0C9A81992399F040
:1037B0008A7A91E009F490E090935402811109C053
:1037C00089E20E94E70B0E94700C80E0DF91CF91AC
:1037D000089585E3F6CF80915402811104C089E2F7
:1037E0000E94EE0BF0CF85E3FBCF81E0EFCF8EE1BF
:1037F0004A9B02C08150E1F74A9BFECF08955A9838
:1038000080E28A95F1F75A9A0895FC013BE03A95D7
:10381000F1F798E020E080E031E040E14A95F1F7EF
:10382000880F4A9B02C08160232742E04A95F1F746
:10383000000040E14A95F1F7915079F790E19A95AF
:10384000F1F799B132E03A95F1F7000040E14A957D
:10385000F1F792FB992790F992272081920F90839C
:103860000895EF92FF920F931F93CF93DF930F92E0
:10387000CDB7DEB719828C017C01E60EF11C0E1566
:103880001F0561F481E09981911180E00F90DF9133
:10389000CF911F910F91FF90EF9008950E94F71B19
:1038A000CE0101960E94051CF80181938F01E7CF9C
:1038B000529A5A9A089552985A9AEA9AE9E6F0E08A
:1038C00080818F7C808308956150770B91E001C0E7
:1038D000990F6A95EAF720E031E0911108C02223A0
:1038E00091F05A9A80E28A95F1F75A980895492FF3
:1038F000482339F05A9A232740E24A95F1F79695E2
:10390000ECCF5A98F9CF5A98EDCFFF920F931F93AF
:10391000CF93DF93EC018C01060F111DC017D10767
:1039200031F4DF91CF911F910F91FF900895F9909D
:103930000E94FF1B68E08F2D0E94641CEFCF1F9236
:103940000F920FB60F921124EF92FF920F931F93D5
:103950002F933F934F935F936F937F938F939F9397
:10396000AF93BF93EF93FF93CF93DF930F92CDB7B6
:10397000DEB719820E94F71BCE0101960E94051C3A
:10398000A82FA695A695A695282F229525709A2F43
:103990009570290F922F937026952695920F982750
:1039A00097708981982B09F075C0A43008F072C017
:1039B00080E18A95F1F75A9A529AB2E0BA95F1F7F6
:1039C00000C05A98EA2EF12CEAE0AE9FD0011124F3
:1039D000AD5FBE4F1896ED91FC9119973097B1F0FD
:1039E0006091A4017091A50116962D913C911797B5
:1039F000260F371F13968D919C911497680F791F8E
:103A000015964C91159712968C9109958AE08E9D8A
:103A1000F0018F9DF00D1124ED5FFE4F658166234F
:103A200051F02091A4013091A50186819781820FE8
:103A3000931F0E94851C0E94FF1BF0E1FA95F1F78D
:103A40005A9852985A9A80E18A95F1F78AE08E9DA9
:103A500080018F9D100D11240D5F1E4FD80112960D
:103A60006C911297662371F12091A4013091A50108
:103A700013968D919C91820F931F0E94311CD80147
:103A8000ED91FC91882311F088E001C082E08083F1
:103A90000E94F71B0F90DF91CF91FF91EF91BF91A3
:103AA000AF919F918F917F916F915F914F913F91D6
:103AB0002F911F910F91FF90EF900F900FBE0F90DD
:103AC0001F901895ED91FC91DFCF0F931F93CF932B
:103AD000DF93EC0104970CF0A9C08AE08C9FF00101
:103AE0008D9FF00D1124ED5FFE4F80819181892B18
:103AF00009F49CC0F894529A5A9885E08A95F1F797
:103B000000008C2F869585709C2F9570890F982FBB
:103B1000937086958695890F8E0193E0000F111F93
:103B20009A95E1F7082B0E94FF1B00C068E0802FE8
:103B30000E94641CA0E1AA95F1F752985A9A4A9BF8
:103B400027C087E090E04A9925C08AE08C9F8001D9
:103B50008D9F100D11240D5F1E4FF80165816623A6
:103B6000A1F12091A4013091A50186819781820F56
:103B7000931F0E94311C811128C0529A5A9AD80171
:103B8000ED91FC9182E08083789482E090E016C011
:103B900000C0D5CF0197B9F4529A5A9A8AE08C9F07
:103BA000F0018D9FF00D1124ED5FFE4F0190F0812B
:103BB000E02D81E08083789481E090E0DF91CF91E7
:103BC0001F910F91089500C0BECF0E94F71BB0E275
:103BD000BA95F1F75A98529AE0E1EA95F1F78AE03E
:103BE0008C9FF0018D9FF00D1124ED5FFE4F6281DF
:103BF000662351F02091A4013091A5018381948125
:103C0000820F931F0E94851C0E94FF1B8AE08C9FDD
:103C1000F0018D9FF00D1124ED5FFE4F0190F081BA
:103C2000E02D1082789490E080E0C8CF84E090E0AE
:103C3000C5CF90935B0280935A0208950E9431127F
:103C4000811103C0809155020895E0915A02F091CC
:103C50005B02309721F00190F081E02D099480E023
:103C60000895E0915A02F0915B02309721F00280B2
:103C7000F381E02D09940895E0915A02F0915B02DE
:103C8000309739F022E0DC012C930480F581E02D9F
:103C90000994089520915802309159022817390744
:103CA00071F09093590280935802E0915A02F0917A
:103CB0005B02309721F00680F781E02D099408958A
:103CC00020915602309157022817390771F09093CE
:103CD000570280935602E0915A02F0915B023097AE
:103CE00021F00084F185E02D099408959C012E5F58
:103CF0003F4FAC01485F5F4F80E02417350709F460
:103D00000895F90191919F019923B9F38F5FF5CF40
:103D1000662349F0FC01329608962191261729F076
:103D2000E817F907D1F780E0089581E008959C0134
:103D3000FC0132969FEF80E04191461751F09F3F82
:103D400019F4411101C0982F8F5F8630A9F79F3F6A
:103D500009F40895290F311D97FD3A95F901628301
:103D60000895FC01329608962191261303C0DF01C5
:103D700011971C92E817F907B9F708950C94971E4C
:103D80000C94B11E029626E0FC0111922A95E9F7E7
:103D9000089510927F021092800210928102109278
:103DA00082020895CF92DF92EF92FF926B017C0125
:103DB0000E94311281110EC00E94991FC61AD70AA3
:103DC000E80AF90AC0927F02D0928002E092810252
:103DD000F0928202FF90EF90DF90CF9008950F93C2
:103DE0001F930E943112882321F01F910F910C9490
:103DF000991F0E94991F00917F02109180022091CB
:103E0000810230918202600F711F821F931F1F91E8
:103E10000F9108950895089508950C940C1F8091B2
:103E20008B02843049F10E940D1F80E00E94330410
:103E300010925C0288E190E020E40FB6F894A89517
:103E4000809360000FBE2093600083B7817F846001
:103E500083BF83B7816083BF7894889583B78E7F53
:103E600083BF0FB6F894A895809160008861809315
:103E70006000109260000FBE08950895CF930E94D5
:103E80000B1F0E94A7110E943D1FC0E08C2F0E94B3
:103E90007A10811105C0CF5FC830C1F7CF91089566
:103EA00081E0FCCF08950C94521F0E94CC070E9421
:103EB0001E1E0E9433040C94531F1F921FB61F92A4
:103EC00011248F939F93AF93BF9380915C028111D4
:103ED00013C08091830290918402A0918502B091D9
:103EE00086024196A11DB11D8093830290938402A6
:103EF000A0938502B0938602BF91AF919F918F915D
:103F00001F901FBE1F90189582E084BD93E095BD61
:103F10009AEF97BD80936E0008952FB7F894809123
:103F2000830290918402A0918502B09186022FBFF6
:103F300008952FB7F8946091830270918402809164
:103F40008502909186022FBF08959C014FB7F89487
:103F50008091830290918402A0918502B0918602A3
:103F60004FBF821B930B0895CF92DF92EF92FF9287
:103F70002FB7F894C0908302D0908402E09085021D
:103F8000F09086022FBFA7019601261B370B480B26
:103F9000590BCA01B901FF90EF90DF90CF900895BF
:103FA00078941F921FB61F9211248F939F93AF9303
:103FB000BF938091830290918402A0918502B09179
:103FC00086020196A11DB11D809383029093840205
:103FD000A0938502B0938602BF91AF919F918F917C
:103FE0001F901FBE1F90189581E08093E00080E233
:103FF0008093D8001092C9008FE19EE40197F1F7F9
:1040000000C0000087E090EBDC0180939402909365
:104010009502A0939602B093970288E19CE00FB6B8
:10402000F894A895809360000FBE90936000FFCF36
:104030009093B7018093B601089580916802089526
:1040400090918B02943029F580935D0270935F020A
:1040500060935E029093E9008FEF9091E8008150A9
:1040600095FD06C095ED9A95F1F700008111F5CF09
:104070008091E80085FF0DC050E040E063E070E013
:104080008DE592E00E9499228091E8008E778093DE
:10409000E8000895BC0184E00C942020BC0183E07A
:1040A0000C9420209C0184E08093E9009FEF809194
:1040B000E800915085FD06C085ED8A95F1F7000076
:1040C0009111F5CF8091E80085FF0CC050E040E0F1
:1040D00066E070E0C9010E9499228091E8008E7725
:1040E0008093E8000895CF93DF93EC0181E0809303
:1040F000E9008FEF9091E800815095FD06C095EDA5
:104100009A95F1F700008111F5CF8091E80085FFC5
:1041100014C050E040E068E070E0CE010E949922B7
:104120008091E8008E778093E80088E0FE01A0E6A9
:10413000B2E001900D928A95E1F7DF91CF91089559
:10414000CF93FC01603221F580918B02843001F520
:10415000C091E900CF702091EC00922F917020FD6A
:1041600090E8C92B82E08093E9008091E80080FF0D
:104170000CC050E040E060E270E0CF010E94992264
:104180008091E8008E778093E800CF70C093E900BB
:10419000CF91089580918A02811109C00E947824EC
:1041A0000E94D5248091E20084608093E20008950B
:1041B00010928A02089508950895089542E061ECEE
:1041C00081E00E94F42342E261EC84E00E94F42347
:1041D00042E261EC82E00E94F42342E260EC83E080
:1041E0000C94F42380918D02833009F461C030F483
:1041F0008130D1F1823009F49DC008958A3009F4EC
:1042000089C08B3009F46FC0893009F050C08091AB
:104210008C02813209F04BC0809190029091910202
:10422000009719F0029709F042C08091E800877F5B
:104230008093E8008091E80082FF35C09091F30000
:104240008091F200029729F48091F1008B7F8130F8
:1042500021F48091F100809368028091E8008B77CF
:104260008093E8000C94282480918C02813AF9F420
:104270008091E800877F8093E80080919002909180
:104280009102892B61F468E080E692E070E00E9480
:1042900037238091E8008B778093E800089560E0F1
:1042A00090E080E0F3CF80918B028111C3CF08951D
:1042B00080918C02813AD9F780919002909191027D
:1042C000892BA9F78091E800877F8093E80080918F
:1042D000E80080FFFCCF809133018093F100809152
:1042E000E8008E77BDCF80918C02813201F78091FA
:1042F000900290919102892BD1F68091E800877FFE
:104300008093E8000E94282480918E0280933301DC
:104310000C94CC0780918C02813249F68091E800A0
:10432000877F8093E8000E94282480918F028093E9
:104330006902089580918C02813A09F0B8CF80918A
:10434000E800877F8093E8008091E80080FFFCCF41
:1043500080916902C2CF84B7877F84BF0FB6F8947B
:10436000A895809160008861809360001092600041
:104370000FBE80E890E00FB6F894809361009093B0
:1043800061000FBE0C94AF0D0E9478240E94D524CA
:10439000E2EEF0E080818460808378940E945E2762
:1043A0000E94C10D89E291E00C94191ECF93DF9316
:1043B000CDB7DEB7A0970FB6F894DEBF0FBECDBF66
:1043C00080918B02853031F480918B02853091F1A0
:1043D0000E94551F0E94CD0D80918B02843009F5FB
:1043E00083E08093E9008091E80082FF1AC0809109
:1043F000E80090E085FF09C050E040E060E270E036
:10440000CE0101960E94E82291E08091E8008B772E
:104410008093E800992329F060E2CE0101960E9482
:104420008D17A0960FB6F894DEBF0FBECDBFDF91FB
:10443000CF9108950E940F1F80918902882321F255
:104440000E943E1F882309F4BFCF0E9483220E944E
:10445000CC07BACF0C942C22292F332723303105D7
:1044600021F168F42130310509F443C022303105CF
:1044700009F444C090E080E030E020E026C0213222
:10448000310551F122323105A9F76330710590F7FA
:10449000FB01EE0FFF1FE755FE4F208131816A556A
:1044A0007E4FFB01808190E010C0992781309105FB
:1044B00081F0009729F00297E9F6ECEDF2E002C0F6
:1044C000E4E0F3E0849190E09F01FA0131832083DE
:1044D0000895EEEEF2E0F6CF6330710558F6660F00
:1044E000771FFB01E155FE4F2081318189E090E08B
:1044F000ECCF82E190E023E633E0E7CF8BE590E07C
:1045000028E033E0E2CF80E189BD82E189BD09B4D2
:1045100000FEFDCF8091D8008F7D8093D8008091E0
:10452000E00082608093E0008091E00081FDFCCF9C
:104530000895AF92BF92CF92DF92FF920F931F9395
:10454000CF93DF936C01EB018A010E944724F82E80
:10455000811123C00115110539F0F8018081918185
:10456000C81BD90BC80ED91EB12CA12C2097A9F0BD
:104570008091E80085FD22C08091E8008E778093CD
:10458000E80001151105A1F0F80180819181A80EC4
:10459000B91EB182A08285E0F82E8F2DDF91CF91D8
:1045A0001F910F91FF90DF90CF90BF90AF90089533
:1045B0000E9447248823D1F2F82EEFCFF601819193
:1045C0006F018093F1002197FFEFAF1ABF0ACECFA2
:1045D000AF92BF92CF92DF92FF920F931F93CF9330
:1045E000DF936C01EB018A010E944724F82E8111B0
:1045F00023C00115110539F0F80180819181C81B94
:10460000D90BC80ED91EB12CA12C2097A9F08091EE
:10461000E80085FD22C08091E8008B778093E80058
:1046200001151105A1F0F80180819181A80EB91E34
:10463000B182A08285E0F82E8F2DDF91CF911F915E
:104640000F91FF90DF90CF90BF90AF9008950E94A0
:1046500047248823D1F2F82EEFCF8091F100F601A4
:1046600081936F012197FFEFAF1ABF0ACECFFC01F4
:10467000809192029091930286179707A0F061159E
:10468000710529F49091E8009E779093E80090E0FE
:104690006115710551F4911108C08091E80082FF05
:1046A00034C080E00895BC01F2CF80918B02882352
:1046B000C1F18530C1F18091E80083FD30C0809167
:1046C000E80082FDEACF8091E80080FFE1CF809191
:1046D000F3002091F200382F6115710519F0283090
:1046E000310558F091E02830310509F090E0209133
:1046F000E8002E772093E800CBCF81918093F100E2
:10470000615071092F5F3F4FE7CF80918B02882363
:1047100041F0853041F08091E80083FFBECF81E019
:10472000089582E0089583E00895FC01809192024B
:104730009091930286179707A0F06115710529F4EF
:104740008091E8008E778093E80090E06115710514
:1047500051F4911108C08091E80082FF35C080E0DB
:104760000895BC01F2CF80918B028823C9F1853076
:10477000C9F18091E80083FD31C08091E80082FD9D
:10478000EACF8091E80080FFE1CF8091F300209193
:10479000F200382F6115710519F02830310558F0F5
:1047A00091E02830310509F090E08091E8008E77A3
:1047B0008093E800CBCF84918093F10031966150D3
:1047C00071092F5F3F4FE6CF80918B02882341F024
:1047D000853041F08091E80083FFBDCF81E00895EE
:1047E00082E0089583E00895982F973028F08F7025
:1047F0008093E90081E008959093E900242F762FBB
:1048000050E0981731F07091EC002091ED0050913C
:10481000F00021FD02C09F5FE8CF3091EB003E7FAA
:104820003093EB003091ED003D7F3093ED003091FF
:10483000EB0031603093EB007093EC002093ED00BF
:104840005093F0002091EE0027FDE5CF80E0089521
:1048500080918C0287FF13C08091E80082FF06C020
:104860008091E8008B778093E80004C080918B02F0
:104870008111F2CF089580918B028823D9F3809122
:10488000E80080FFF8CF8091E8008E77ECCF209190
:10489000E4003091E50095E6A9012091EC00822F1B
:1048A000817020FF06C08091E80080FF06C080E094
:1048B00008952091E80022FD1AC080918B02882380
:1048C00089F0853089F08091EB0085FD0FC0209143
:1048D000E4003091E50042175307F9F29150E1F6F8
:1048E00084E0089582E0089583E0089581E00895CA
:1048F0000E94E6240E94EE24E0EEF0E080818160D8
:104900008083E8EDF0E080818F77808319BCA7ED8C
:10491000B0E08C918E7F8C9380818F7E808310920B
:104920008A0208950F931F93CF93DF930E94E6248A
:104930000E94EE24C8EDD0E088818F77888388813B
:104940008068888388818F7D888319BC10928B0250
:1049500010928702109289021092880200EE10E0F5
:10496000F80180818B7F808388818160888342E029
:1049700060E080E00E94F423E1EEF0E080818E7F31
:104980008083E2EEF0E080818160808380818860B6
:104990008083F80180818E7F808388818061888315
:1049A000DF91CF911F910F910895E8EDF0E08081A4
:1049B0008F7E8083E7EDF0E080818160808384E0FA
:1049C00082BF81E080938A020C949224E8EDF0E0AB
:1049D00080818E7F80831092E20008951092DA0029
:1049E0001092E10008951F920F920FB60F921124BA
:1049F0002F933F934F935F936F937F938F939F93E7
:104A0000AF93BF93EF93FF938091E10082FF0BC0C0
:104A10008091E20082FF07C08091E1008B7F80934C
:104A2000E1000E945D278091DA0080FF19C080912B
:104A3000D80080FF15C08091DA008E7F8093DA0065
:104A40008091D90080FF96C080E189BD82E189BD57
:104A500009B400FEFDCF81E080938B020E94CA2042
:104A60008091E10080FF19C08091E20080FF15C0B5
:104A70008091E2008E7F8093E2008091E20080616D
:104A80008093E2008091D80080628093D80019BCA6
:104A900085E080938B020E94DC208091E10084FFFE
:104AA0002BC08091E20084FF27C080E189BD82E1B4
:104AB00089BD89B5982F917080FFFBCF8091D80078
:104AC0008F7D8093D8008091E1008F7E8093E100FC
:104AD0008091E2008F7E8093E2008091E20081600D
:104AE0008093E20080918702882309F449C084E022
:104AF00080938B020E94DD208091E10083FF29C01A
:104B00008091E20083FF25C08091E100877F809340
:104B1000E10082E080938B02109287028091E10095
:104B20008E7F8093E1008091E2008E7F8093E2008F
:104B30008091E20080618093E20042E060E080E0EA
:104B40000E94F4238091F00088608093F0000E941E
:104B5000DB20FF91EF91BF91AF919F918F917F915A
:104B60006F915F914F913F912F910F900FBE0F90DA
:104B70001F90189519BC10928B020E94D82070CFFC
:104B80008091E30087FD93E090938B02B3CF1F9257
:104B90000F920FB60F9211242F933F934F935F9371
:104BA0006F937F938F939F93AF93BF93CF93DF9335
:104BB000EF93FF93D091E900DF708091EC00C82F54
:104BC000C17080FDC0E81092E9008091F000877FFD
:104BD0008093F00078940E940B261092E900809157
:104BE000F00088608093F000CD2BCF70C093E90077
:104BF000FF91EF91DF91CF91BF91AF919F918F91F5
:104C00007F916F915F914F913F912F910F900FBEC8
:104C10000F901F9018951F93CF93DF93CDB7DEB7FA
:104C2000AA970FB6F894DEBF0FBECDBF8CE892E016
:104C30002091F100FC012193CF01F2E084399F071C
:104C4000B9F70E94F2208091E80083FF1EC1809195
:104C50008C0290918D029A3008F017C1E92FF0E094
:104C6000E95BF74D0C949F27803899F0823809F062
:104C70000CC1809190028F70873008F006C180933C
:104C8000E9008091EB0085FB882780F91092E9000C
:104C900006C0809188029091890291118260909162
:104CA000E800977F9093E8008093F1001092F10064
:104CB0008091E8008E77E5C0882309F4D3C0823064
:104CC00009F0E3C080918E028111D6C080919002DC
:104CD0008F702FEF280F263008F0D7C08093E9009F
:104CE0002091EB0020FFC8C0933031F48091EB009D
:104CF00080628093EB00C0C09091EB009061909334
:104D0000EB0021E030E001C0220F8A95EAF7209302
:104D1000EA001092EA008091EB008860EACF8111EE
:104D2000B4C010918E021F778091E3008078812BB0
:104D30008093E3008091E800877F8093E8000E94E1
:104D400028248091E80080FFFCCF8091E3008068F8
:104D50008093E30082E0111183E080938B0295C081
:104D60008058823008F091C080918E0290918F021D
:104D70008C3D23E09207A1F583E08A838AE2898350
:104D80004FB7F894DE01139620E03EE051E2E32FA6
:104D9000F0E050935700E49120FF03C0E295EF70DC
:104DA0003F5FEF708E2F90E0EA30C0F0C7968D9392
:104DB0009D932F5F243159F74FBF8091E800877F83
:104DC0008093E8006AE270E0CE0101960E943723EA
:104DD0008091E8008B778093E80057C0C096E7CFBA
:104DE0006091900270919102AE014F5F5F4F0E94FF
:104DF0002A22BC01892B09F448C09091E800977FD2
:104E00009093E80089819A810E949523E1CF8038B0
:104E1000E1F58091E800877F8093E8008091870228
:104E20008093F10045CF811130C090918E02923075
:104E300060F58091E800877F8093E8009093870277
:104E40000E94282480918702882311F084E005C005
:104E50008091E30087FDFACF81E080938B020E946E
:104E6000DE2013C080918E02813079F481E093308E
:104E700009F080E0809389021092E9008091E800B7
:104E8000877F8093E8000E9428248091E80083FFB8
:104E90000AC08091E800877F8093E8008091EB0052
:104EA00080628093EB00AA960FB6F894DEBF0FBE27
:104EB000CDBFDF91CF911F9108950895CF93809139
:104EC0008B028823A1F0C091E900CF709091EC0093
:104ED000892F817090FD80E8C82B1092E9008091A5
:104EE000E80083FD0E940B26CF70C093E900CF91AC
:104EF00008950E94782410928B020895E8EDF0E066
:104F00008081806180838AE18A95F1F700C0809179
:104F1000D9008170089597FB072E16F4009407D0EE
:104F200077FD09D00E94AC2707FC05D03EF4909590
:104F300081959F4F0895709561957F4F0895EE0F6D
:104F4000FF1F0590F491E02D0994692796276927A2
:104F50007827872778270895AA1BBB1B51E107C034
:104F6000AA1FBB1FA617B70710F0A61BB70B881FF9
:104F7000991F5A95A9F780959095BC01CD01089588
:104F8000FB01DC0104C08D910190801921F4415096
:104F90005040C8F7881B990B0895FB01DC0102C043
:104FA00001900D9241505040D8F70895F999FECFE5
:104FB00092BD81BDF89A992780B50895A8E1B0E027
:104FC00042E050E00C940A28262FF999FECF92BDBA
:104FD00081BDF89A019700B4021639F01FBA20BDBE
:104FE0000FB6F894FA9AF99A0FBE08950396272FF0
:104FF0000E94E5270E94E427252F0E94E527242F01
:105000000C94E5270196272F0E94E5270C94E427AE
:10501000DC01CB01FC01F999FECF06C0F2BDE1BD78
:10502000F89A319600B40D9241505040B8F7089567
:10503000F894FFCFCA05CA05220622067406900618
:10504000F705F7059B06020711071107DB07DB07CA
:10505000E407E407E607E407E407E407DB07DB0708
:10506000EB07E407E407EB079F17AC17D317DF172D
:10507000EA17F517F817F817F817F817F817FB17C6
:10508000FF17071814182118241827183418342665
:105090005C2645275C2645278F26B026452707270F
:0250A0001327D4
:1050A2000702017E0200000001000000007E0200F3
:1050B200000004010000007E020405000000000060
:1050C200002808641E140A321E1D20732052204E2E
:1050D200204A2001E200E900EA00B500B600B7006C
:1050E200CD008301CC008A019201940121022302A6
:1050F20024022502260227022A02B300B4006F000E
:105102007000818283E200E900EA00B500B600B7D0
:1051120000CD008301CC008A019201940121022377
:105122000224022502260227022A02B300B4006FDB
:10513200007000818283F4F5F6F73133946697C6E6
:10514200000000002B0240227B1204750397031A11
:06515200033303530300C8
:00000001FF
